{
  "_format": "hh-sol-artifact-1",
  "contractName": "GoTeam",
  "sourceName": "contracts/GoTeam.sol",
  "abi": [
    {
      "inputs": [],
      "stateMutability": "nonpayable",
      "type": "constructor"
    },
    {
      "inputs": [],
      "name": "AccessControlBadConfirmation",
      "type": "error"
    },
    {
      "inputs": [
        {
          "internalType": "address",
          "name": "account",
          "type": "address"
        },
        {
          "internalType": "bytes32",
          "name": "neededRole",
          "type": "bytes32"
        }
      ],
      "name": "AccessControlUnauthorizedAccount",
      "type": "error"
    },
    {
      "inputs": [
        {
          "internalType": "address",
          "name": "sender",
          "type": "address"
        },
        {
          "internalType": "uint256",
          "name": "balance",
          "type": "uint256"
        },
        {
          "internalType": "uint256",
          "name": "needed",
          "type": "uint256"
        },
        {
          "internalType": "uint256",
          "name": "tokenId",
          "type": "uint256"
        }
      ],
      "name": "ERC1155InsufficientBalance",
      "type": "error"
    },
    {
      "inputs": [
        {
          "internalType": "address",
          "name": "approver",
          "type": "address"
        }
      ],
      "name": "ERC1155InvalidApprover",
      "type": "error"
    },
    {
      "inputs": [
        {
          "internalType": "uint256",
          "name": "idsLength",
          "type": "uint256"
        },
        {
          "internalType": "uint256",
          "name": "valuesLength",
          "type": "uint256"
        }
      ],
      "name": "ERC1155InvalidArrayLength",
      "type": "error"
    },
    {
      "inputs": [
        {
          "internalType": "address",
          "name": "operator",
          "type": "address"
        }
      ],
      "name": "ERC1155InvalidOperator",
      "type": "error"
    },
    {
      "inputs": [
        {
          "internalType": "address",
          "name": "receiver",
          "type": "address"
        }
      ],
      "name": "ERC1155InvalidReceiver",
      "type": "error"
    },
    {
      "inputs": [
        {
          "internalType": "address",
          "name": "sender",
          "type": "address"
        }
      ],
      "name": "ERC1155InvalidSender",
      "type": "error"
    },
    {
      "inputs": [
        {
          "internalType": "address",
          "name": "operator",
          "type": "address"
        },
        {
          "internalType": "address",
          "name": "owner",
          "type": "address"
        }
      ],
      "name": "ERC1155MissingApprovalForAll",
      "type": "error"
    },
    {
      "inputs": [],
      "name": "EnforcedPause",
      "type": "error"
    },
    {
      "inputs": [],
      "name": "ExpectedPause",
      "type": "error"
    },
    {
      "anonymous": false,
      "inputs": [
        {
          "indexed": true,
          "internalType": "address",
          "name": "account",
          "type": "address"
        },
        {
          "indexed": true,
          "internalType": "address",
          "name": "operator",
          "type": "address"
        },
        {
          "indexed": false,
          "internalType": "bool",
          "name": "approved",
          "type": "bool"
        }
      ],
      "name": "ApprovalForAll",
      "type": "event"
    },
    {
      "anonymous": false,
      "inputs": [
        {
          "indexed": false,
          "internalType": "address",
          "name": "account",
          "type": "address"
        }
      ],
      "name": "Paused",
      "type": "event"
    },
    {
      "anonymous": false,
      "inputs": [
        {
          "indexed": true,
          "internalType": "bytes32",
          "name": "role",
          "type": "bytes32"
        },
        {
          "indexed": true,
          "internalType": "bytes32",
          "name": "previousAdminRole",
          "type": "bytes32"
        },
        {
          "indexed": true,
          "internalType": "bytes32",
          "name": "newAdminRole",
          "type": "bytes32"
        }
      ],
      "name": "RoleAdminChanged",
      "type": "event"
    },
    {
      "anonymous": false,
      "inputs": [
        {
          "indexed": true,
          "internalType": "bytes32",
          "name": "role",
          "type": "bytes32"
        },
        {
          "indexed": true,
          "internalType": "address",
          "name": "account",
          "type": "address"
        },
        {
          "indexed": true,
          "internalType": "address",
          "name": "sender",
          "type": "address"
        }
      ],
      "name": "RoleGranted",
      "type": "event"
    },
    {
      "anonymous": false,
      "inputs": [
        {
          "indexed": true,
          "internalType": "bytes32",
          "name": "role",
          "type": "bytes32"
        },
        {
          "indexed": true,
          "internalType": "address",
          "name": "account",
          "type": "address"
        },
        {
          "indexed": true,
          "internalType": "address",
          "name": "sender",
          "type": "address"
        }
      ],
      "name": "RoleRevoked",
      "type": "event"
    },
    {
      "anonymous": false,
      "inputs": [
        {
          "indexed": true,
          "internalType": "address",
          "name": "operator",
          "type": "address"
        },
        {
          "indexed": true,
          "internalType": "address",
          "name": "from",
          "type": "address"
        },
        {
          "indexed": true,
          "internalType": "address",
          "name": "to",
          "type": "address"
        },
        {
          "indexed": false,
          "internalType": "uint256[]",
          "name": "ids",
          "type": "uint256[]"
        },
        {
          "indexed": false,
          "internalType": "uint256[]",
          "name": "values",
          "type": "uint256[]"
        }
      ],
      "name": "TransferBatch",
      "type": "event"
    },
    {
      "anonymous": false,
      "inputs": [
        {
          "indexed": true,
          "internalType": "address",
          "name": "operator",
          "type": "address"
        },
        {
          "indexed": true,
          "internalType": "address",
          "name": "from",
          "type": "address"
        },
        {
          "indexed": true,
          "internalType": "address",
          "name": "to",
          "type": "address"
        },
        {
          "indexed": false,
          "internalType": "uint256",
          "name": "id",
          "type": "uint256"
        },
        {
          "indexed": false,
          "internalType": "uint256",
          "name": "value",
          "type": "uint256"
        }
      ],
      "name": "TransferSingle",
      "type": "event"
    },
    {
      "anonymous": false,
      "inputs": [
        {
          "indexed": false,
          "internalType": "string",
          "name": "value",
          "type": "string"
        },
        {
          "indexed": true,
          "internalType": "uint256",
          "name": "id",
          "type": "uint256"
        }
      ],
      "name": "URI",
      "type": "event"
    },
    {
      "anonymous": false,
      "inputs": [
        {
          "indexed": false,
          "internalType": "address",
          "name": "account",
          "type": "address"
        }
      ],
      "name": "Unpaused",
      "type": "event"
    },
    {
      "inputs": [],
      "name": "DEFAULT_ADMIN_ROLE",
      "outputs": [
        {
          "internalType": "bytes32",
          "name": "",
          "type": "bytes32"
        }
      ],
      "stateMutability": "view",
      "type": "function"
    },
    {
      "inputs": [],
      "name": "MINTER_ROLE",
      "outputs": [
        {
          "internalType": "bytes32",
          "name": "",
          "type": "bytes32"
        }
      ],
      "stateMutability": "view",
      "type": "function"
    },
    {
      "inputs": [],
      "name": "PAUSER_ROLE",
      "outputs": [
        {
          "internalType": "bytes32",
          "name": "",
          "type": "bytes32"
        }
      ],
      "stateMutability": "view",
      "type": "function"
    },
    {
      "inputs": [],
      "name": "URI_SETTER_ROLE",
      "outputs": [
        {
          "internalType": "bytes32",
          "name": "",
          "type": "bytes32"
        }
      ],
      "stateMutability": "view",
      "type": "function"
    },
    {
      "inputs": [
        {
          "internalType": "address",
          "name": "account",
          "type": "address"
        },
        {
          "internalType": "uint256",
          "name": "id",
          "type": "uint256"
        }
      ],
      "name": "balanceOf",
      "outputs": [
        {
          "internalType": "uint256",
          "name": "",
          "type": "uint256"
        }
      ],
      "stateMutability": "view",
      "type": "function"
    },
    {
      "inputs": [
        {
          "internalType": "address[]",
          "name": "accounts",
          "type": "address[]"
        },
        {
          "internalType": "uint256[]",
          "name": "ids",
          "type": "uint256[]"
        }
      ],
      "name": "balanceOfBatch",
      "outputs": [
        {
          "internalType": "uint256[]",
          "name": "",
          "type": "uint256[]"
        }
      ],
      "stateMutability": "view",
      "type": "function"
    },
    {
      "inputs": [
        {
          "internalType": "address",
          "name": "account",
          "type": "address"
        },
        {
          "internalType": "uint256",
          "name": "id",
          "type": "uint256"
        },
        {
          "internalType": "uint256",
          "name": "value",
          "type": "uint256"
        }
      ],
      "name": "burn",
      "outputs": [],
      "stateMutability": "nonpayable",
      "type": "function"
    },
    {
      "inputs": [
        {
          "internalType": "address",
          "name": "account",
          "type": "address"
        },
        {
          "internalType": "uint256[]",
          "name": "ids",
          "type": "uint256[]"
        },
        {
          "internalType": "uint256[]",
          "name": "values",
          "type": "uint256[]"
        }
      ],
      "name": "burnBatch",
      "outputs": [],
      "stateMutability": "nonpayable",
      "type": "function"
    },
    {
      "inputs": [
        {
          "internalType": "uint256",
          "name": "id",
          "type": "uint256"
        }
      ],
      "name": "exists",
      "outputs": [
        {
          "internalType": "bool",
          "name": "",
          "type": "bool"
        }
      ],
      "stateMutability": "view",
      "type": "function"
    },
    {
      "inputs": [
        {
          "internalType": "bytes32",
          "name": "role",
          "type": "bytes32"
        }
      ],
      "name": "getRoleAdmin",
      "outputs": [
        {
          "internalType": "bytes32",
          "name": "",
          "type": "bytes32"
        }
      ],
      "stateMutability": "view",
      "type": "function"
    },
    {
      "inputs": [
        {
          "internalType": "bytes32",
          "name": "role",
          "type": "bytes32"
        },
        {
          "internalType": "address",
          "name": "account",
          "type": "address"
        }
      ],
      "name": "grantRole",
      "outputs": [],
      "stateMutability": "nonpayable",
      "type": "function"
    },
    {
      "inputs": [
        {
          "internalType": "bytes32",
          "name": "role",
          "type": "bytes32"
        },
        {
          "internalType": "address",
          "name": "account",
          "type": "address"
        }
      ],
      "name": "hasRole",
      "outputs": [
        {
          "internalType": "bool",
          "name": "",
          "type": "bool"
        }
      ],
      "stateMutability": "view",
      "type": "function"
    },
    {
      "inputs": [
        {
          "internalType": "address",
          "name": "account",
          "type": "address"
        },
        {
          "internalType": "address",
          "name": "operator",
          "type": "address"
        }
      ],
      "name": "isApprovedForAll",
      "outputs": [
        {
          "internalType": "bool",
          "name": "",
          "type": "bool"
        }
      ],
      "stateMutability": "view",
      "type": "function"
    },
    {
      "inputs": [
        {
          "internalType": "address",
          "name": "account",
          "type": "address"
        },
        {
          "internalType": "uint256",
          "name": "id",
          "type": "uint256"
        },
        {
          "internalType": "uint256",
          "name": "amount",
          "type": "uint256"
        },
        {
          "internalType": "bytes",
          "name": "data",
          "type": "bytes"
        }
      ],
      "name": "mint",
      "outputs": [],
      "stateMutability": "nonpayable",
      "type": "function"
    },
    {
      "inputs": [
        {
          "internalType": "address",
          "name": "to",
          "type": "address"
        },
        {
          "internalType": "uint256[]",
          "name": "ids",
          "type": "uint256[]"
        },
        {
          "internalType": "uint256[]",
          "name": "amounts",
          "type": "uint256[]"
        },
        {
          "internalType": "bytes",
          "name": "data",
          "type": "bytes"
        }
      ],
      "name": "mintBatch",
      "outputs": [],
      "stateMutability": "nonpayable",
      "type": "function"
    },
    {
      "inputs": [],
      "name": "pause",
      "outputs": [],
      "stateMutability": "nonpayable",
      "type": "function"
    },
    {
      "inputs": [],
      "name": "paused",
      "outputs": [
        {
          "internalType": "bool",
          "name": "",
          "type": "bool"
        }
      ],
      "stateMutability": "view",
      "type": "function"
    },
    {
      "inputs": [
        {
          "internalType": "bytes32",
          "name": "role",
          "type": "bytes32"
        },
        {
          "internalType": "address",
          "name": "callerConfirmation",
          "type": "address"
        }
      ],
      "name": "renounceRole",
      "outputs": [],
      "stateMutability": "nonpayable",
      "type": "function"
    },
    {
      "inputs": [
        {
          "internalType": "bytes32",
          "name": "role",
          "type": "bytes32"
        },
        {
          "internalType": "address",
          "name": "account",
          "type": "address"
        }
      ],
      "name": "revokeRole",
      "outputs": [],
      "stateMutability": "nonpayable",
      "type": "function"
    },
    {
      "inputs": [
        {
          "internalType": "address",
          "name": "from",
          "type": "address"
        },
        {
          "internalType": "address",
          "name": "to",
          "type": "address"
        },
        {
          "internalType": "uint256[]",
          "name": "ids",
          "type": "uint256[]"
        },
        {
          "internalType": "uint256[]",
          "name": "values",
          "type": "uint256[]"
        },
        {
          "internalType": "bytes",
          "name": "data",
          "type": "bytes"
        }
      ],
      "name": "safeBatchTransferFrom",
      "outputs": [],
      "stateMutability": "nonpayable",
      "type": "function"
    },
    {
      "inputs": [
        {
          "internalType": "address",
          "name": "from",
          "type": "address"
        },
        {
          "internalType": "address",
          "name": "to",
          "type": "address"
        },
        {
          "internalType": "uint256",
          "name": "id",
          "type": "uint256"
        },
        {
          "internalType": "uint256",
          "name": "value",
          "type": "uint256"
        },
        {
          "internalType": "bytes",
          "name": "data",
          "type": "bytes"
        }
      ],
      "name": "safeTransferFrom",
      "outputs": [],
      "stateMutability": "nonpayable",
      "type": "function"
    },
    {
      "inputs": [
        {
          "internalType": "address",
          "name": "operator",
          "type": "address"
        },
        {
          "internalType": "bool",
          "name": "approved",
          "type": "bool"
        }
      ],
      "name": "setApprovalForAll",
      "outputs": [],
      "stateMutability": "nonpayable",
      "type": "function"
    },
    {
      "inputs": [
        {
          "internalType": "string",
          "name": "newuri",
          "type": "string"
        }
      ],
      "name": "setURI",
      "outputs": [],
      "stateMutability": "nonpayable",
      "type": "function"
    },
    {
      "inputs": [
        {
          "internalType": "bytes4",
          "name": "interfaceId",
          "type": "bytes4"
        }
      ],
      "name": "supportsInterface",
      "outputs": [
        {
          "internalType": "bool",
          "name": "",
          "type": "bool"
        }
      ],
      "stateMutability": "view",
      "type": "function"
    },
    {
      "inputs": [],
      "name": "totalSupply",
      "outputs": [
        {
          "internalType": "uint256",
          "name": "",
          "type": "uint256"
        }
      ],
      "stateMutability": "view",
      "type": "function"
    },
    {
      "inputs": [
        {
          "internalType": "uint256",
          "name": "id",
          "type": "uint256"
        }
      ],
      "name": "totalSupply",
      "outputs": [
        {
          "internalType": "uint256",
          "name": "",
          "type": "uint256"
        }
      ],
      "stateMutability": "view",
      "type": "function"
    },
    {
      "inputs": [],
      "name": "unpause",
      "outputs": [],
      "stateMutability": "nonpayable",
      "type": "function"
    },
    {
      "inputs": [
        {
          "internalType": "uint256",
          "name": "",
          "type": "uint256"
        }
      ],
      "name": "uri",
      "outputs": [
        {
          "internalType": "string",
          "name": "",
          "type": "string"
        }
      ],
      "stateMutability": "view",
      "type": "function"
    }
  ],
  "bytecode": "0x60806040523480156200001157600080fd5b506040805160208101909152600081526200002c81620000d2565b506004805460ff1916905562000044600033620000e4565b50620000717f7804d923f43a17d325d77e781528e0793b2edd9890ab45fc64efd7b4b427744c33620000e4565b506200009e7f65d7a28e3265b37a6474929f336521b332c1681b933f6cb9f3376673440d862a33620000e4565b50620000cb7f9f2df0fed2c77648de5860a4cc508cd0818c85b8b8a1ab4ceeef8d981c8956a633620000e4565b5062000308565b6002620000e082826200023c565b5050565b60008281526003602090815260408083206001600160a01b038516845290915281205460ff166200018d5760008381526003602090815260408083206001600160a01b03861684529091529020805460ff19166001179055620001443390565b6001600160a01b0316826001600160a01b0316847f2f8788117e7eff1d82e926ec794901d17c78024a50270940304540a733656f0d60405160405180910390a450600162000191565b5060005b92915050565b634e487b7160e01b600052604160045260246000fd5b600181811c90821680620001c257607f821691505b602082108103620001e357634e487b7160e01b600052602260045260246000fd5b50919050565b601f8211156200023757600081815260208120601f850160051c81016020861015620002125750805b601f850160051c820191505b8181101562000233578281556001016200021e565b5050505b505050565b81516001600160401b0381111562000258576200025862000197565b6200027081620002698454620001ad565b84620001e9565b602080601f831160018114620002a857600084156200028f5750858301515b600019600386901b1c1916600185901b17855562000233565b600085815260208120601f198616915b82811015620002d957888601518255948401946001909101908401620002b8565b5085821015620002f85787850151600019600388901b60f8161c191681555b5050505050600190811b01905550565b611fac80620003186000396000f3fe608060405234801561001057600080fd5b50600436106101c35760003560e01c80636b20c454116100f9578063bd85b03911610097578063e63ab1e911610071578063e63ab1e914610415578063e985e9c51461043c578063f242432a14610478578063f5298aca1461048b57600080fd5b8063bd85b039146103bb578063d5391393146103db578063d547741f1461040257600080fd5b80638456cb59116100d35780638456cb591461035f57806391d1485414610367578063a217fddf146103a0578063a22cb465146103a857600080fd5b80636b20c45414610312578063731133e9146103255780637f3457101461033857600080fd5b80632eb2c2d6116101665780633f4ba83a116101405780633f4ba83a146102bd5780634e1273f4146102c55780634f558e79146102e55780635c975abb1461030757600080fd5b80632eb2c2d6146102845780632f2ff15d1461029757806336568abe146102aa57600080fd5b80630e89341c116101a25780630e89341c1461022657806318160ddd146102465780631f7fdffa1461024e578063248a9ca31461026157600080fd5b8062fdd58e146101c857806301ffc9a7146101ee57806302fe530514610211575b600080fd5b6101db6101d6366004611639565b61049e565b6040519081526020015b60405180910390f35b6102016101fc366004611679565b6104c6565b60405190151581526020016101e5565b61022461021f36600461173c565b6104d1565b005b61023961023436600461178d565b610508565b6040516101e591906117ec565b6006546101db565b61022461025c3660046118ae565b61059c565b6101db61026f36600461178d565b60009081526003602052604090206001015490565b610224610292366004611947565b6105d9565b6102246102a53660046119f1565b610664565b6102246102b83660046119f1565b61068f565b6102246106e0565b6102d86102d3366004611a1d565b610715565b6040516101e59190611b18565b6102016102f336600461178d565b600090815260056020526040902054151590565b60045460ff16610201565b610224610320366004611b2b565b6107ea565b610224610333366004611b9f565b610849565b6101db7f7804d923f43a17d325d77e781528e0793b2edd9890ab45fc64efd7b4b427744c81565b61022461087f565b6102016103753660046119f1565b60009182526003602090815260408084206001600160a01b0393909316845291905290205460ff1690565b6101db600081565b6102246103b6366004611bf4565b6108b1565b6101db6103c936600461178d565b60009081526005602052604090205490565b6101db7f9f2df0fed2c77648de5860a4cc508cd0818c85b8b8a1ab4ceeef8d981c8956a681565b6102246104103660046119f1565b6108bc565b6101db7f65d7a28e3265b37a6474929f336521b332c1681b933f6cb9f3376673440d862a81565b61020161044a366004611c30565b6001600160a01b03918216600090815260016020908152604080832093909416825291909152205460ff1690565b610224610486366004611c5a565b6108e1565b610224610499366004611cbf565b61095f565b6000818152602081815260408083206001600160a01b03861684529091529020545b92915050565b60006104c082610995565b7f7804d923f43a17d325d77e781528e0793b2edd9890ab45fc64efd7b4b427744c6104fb816109d3565b610504826109dd565b5050565b60606002805461051790611cf2565b80601f016020809104026020016040519081016040528092919081815260200182805461054390611cf2565b80156105905780601f1061056557610100808354040283529160200191610590565b820191906000526020600020905b81548152906001019060200180831161057357829003601f168201915b50505050509050919050565b7f9f2df0fed2c77648de5860a4cc508cd0818c85b8b8a1ab4ceeef8d981c8956a66105c6816109d3565b6105d2858585856109e9565b5050505050565b336001600160a01b038616811480159061061957506001600160a01b0380871660009081526001602090815260408083209385168352929052205460ff16155b1561064f5760405163711bec9160e11b81526001600160a01b038083166004830152871660248201526044015b60405180910390fd5b61065c8686868686610a21565b505050505050565b60008281526003602052604090206001015461067f816109d3565b6106898383610a81565b50505050565b6001600160a01b03811633146106d1576040517f6697b23200000000000000000000000000000000000000000000000000000000815260040160405180910390fd5b6106db8282610b2f565b505050565b7f65d7a28e3265b37a6474929f336521b332c1681b933f6cb9f3376673440d862a61070a816109d3565b610712610bb6565b50565b606081518351146107465781518351604051635b05999160e01b815260048101929092526024820152604401610646565b6000835167ffffffffffffffff8111156107625761076261169d565b60405190808252806020026020018201604052801561078b578160200160208202803683370190505b50905060005b84518110156107e2576020808202860101516107b59060208084028701015161049e565b8282815181106107c7576107c7611d2c565b60209081029190910101526107db81611d58565b9050610791565b509392505050565b6001600160a01b038316331480159061080a5750610808833361044a565b155b1561083e57335b60405163711bec9160e11b81526001600160a01b0391821660048201529084166024820152604401610646565b6106db838383610c08565b7f9f2df0fed2c77648de5860a4cc508cd0818c85b8b8a1ab4ceeef8d981c8956a6610873816109d3565b6105d285858585610c4e565b7f65d7a28e3265b37a6474929f336521b332c1681b933f6cb9f3376673440d862a6108a9816109d3565b610712610cab565b610504338383610ce8565b6000828152600360205260409020600101546108d7816109d3565b6106898383610b2f565b336001600160a01b038616811480159061092157506001600160a01b0380871660009081526001602090815260408083209385168352929052205460ff16155b156109525760405163711bec9160e11b81526001600160a01b03808316600483015287166024820152604401610646565b61065c8686868686610d98565b6001600160a01b038316331480159061097f575061097d833361044a565b155b1561098a5733610811565b6106db838383610e26565b60006001600160e01b031982167f7965db0b0000000000000000000000000000000000000000000000000000000014806104c057506104c082610e8e565b6107128133610f29565b60026105048282611db7565b6001600160a01b038416610a1357604051632bfa23e760e11b815260006004820152602401610646565b610689600085858585610f97565b6001600160a01b038416610a4b57604051632bfa23e760e11b815260006004820152602401610646565b6001600160a01b038516610a7457604051626a0d4560e21b815260006004820152602401610646565b6105d28585858585610f97565b60008281526003602090815260408083206001600160a01b038516845290915281205460ff16610b275760008381526003602090815260408083206001600160a01b03861684529091529020805460ff19166001179055610adf3390565b6001600160a01b0316826001600160a01b0316847f2f8788117e7eff1d82e926ec794901d17c78024a50270940304540a733656f0d60405160405180910390a45060016104c0565b5060006104c0565b60008281526003602090815260408083206001600160a01b038516845290915281205460ff1615610b275760008381526003602090815260408083206001600160a01b0386168085529252808320805460ff1916905551339286917ff6391f5c32d9c69d2a47ea670b442974b53935d1edc7fd64eb21e047a839171b9190a45060016104c0565b610bbe610fea565b6004805460ff191690557f5db9ee0a495bf2e6ff9c91a7834c1ba4fdd244a5e8aa4e537bd38aeae4b073aa335b6040516001600160a01b03909116815260200160405180910390a1565b6001600160a01b038316610c3157604051626a0d4560e21b815260006004820152602401610646565b6106db836000848460405180602001604052806000815250610f97565b6001600160a01b038416610c7857604051632bfa23e760e11b815260006004820152602401610646565b6040805160018082526020820186905281830190815260608201859052608082019092529061065c600087848487610f97565b610cb3611028565b6004805460ff191660011790557f62e78cea01bee320cd4e420270b5ea74000d11b0c9f74754ebdbfc544b05a258610beb3390565b6001600160a01b038216610d2b576040517fced3e10000000000000000000000000000000000000000000000000000000000815260006004820152602401610646565b6001600160a01b03838116600081815260016020908152604080832094871680845294825291829020805460ff191686151590811790915591519182527f17307eab39ab6107e8899845ad3d59bd9653f200f220920489ca2b5937696c31910160405180910390a3505050565b6001600160a01b038416610dc257604051632bfa23e760e11b815260006004820152602401610646565b6001600160a01b038516610deb57604051626a0d4560e21b815260006004820152602401610646565b60408051600180825260208201869052818301908152606082018590526080820190925290610e1d8787848487610f97565b50505050505050565b6001600160a01b038316610e4f57604051626a0d4560e21b815260006004820152602401610646565b604080516001808252602082018590528183019081526060820184905260a082019092526000608082018181529192916105d291879185908590610f97565b60006001600160e01b031982167fd9b67a26000000000000000000000000000000000000000000000000000000001480610ef157506001600160e01b031982167f0e89341c00000000000000000000000000000000000000000000000000000000145b806104c057507f01ffc9a7000000000000000000000000000000000000000000000000000000006001600160e01b03198316146104c0565b60008281526003602090815260408083206001600160a01b038516845290915290205460ff16610504576040517fe2517d3f0000000000000000000000000000000000000000000000000000000081526001600160a01b038216600482015260248101839052604401610646565b610fa385858585611065565b6001600160a01b038416156105d25782513390600103610fdc5760208481015190840151610fd5838989858589611071565b505061065c565b61065c818787878787611195565b60045460ff16611026576040517f8dfc202b00000000000000000000000000000000000000000000000000000000815260040160405180910390fd5b565b60045460ff1615611026576040517fd93c066500000000000000000000000000000000000000000000000000000000815260040160405180910390fd5b6106898484848461127e565b6001600160a01b0384163b1561065c5760405163f23a6e6160e01b81526001600160a01b0385169063f23a6e61906110b59089908990889088908890600401611e77565b6020604051808303816000875af19250505080156110f0575060408051601f3d908101601f191682019092526110ed91810190611eba565b60015b611159573d80801561111e576040519150601f19603f3d011682016040523d82523d6000602084013e611123565b606091505b50805160000361115157604051632bfa23e760e11b81526001600160a01b0386166004820152602401610646565b805181602001fd5b6001600160e01b0319811663f23a6e6160e01b14610e1d57604051632bfa23e760e11b81526001600160a01b0386166004820152602401610646565b6001600160a01b0384163b1561065c5760405163bc197c8160e01b81526001600160a01b0385169063bc197c81906111d99089908990889088908890600401611ed7565b6020604051808303816000875af1925050508015611214575060408051601f3d908101601f1916820190925261121191810190611eba565b60015b611242573d80801561111e576040519150601f19603f3d011682016040523d82523d6000602084013e611123565b6001600160e01b0319811663bc197c8160e01b14610e1d57604051632bfa23e760e11b81526001600160a01b0386166004820152602401610646565b61128a848484846113d8565b6001600160a01b03841661133d576000805b83518110156113235760008382815181106112b9576112b9611d2c565b6020026020010151905080600560008785815181106112da576112da611d2c565b6020026020010151815260200190815260200160002060008282546112ff9190611f35565b9091555061130f90508184611f35565b9250508061131c90611d58565b905061129c565b5080600660008282546113369190611f35565b9091555050505b6001600160a01b038316610689576000805b83518110156113c757600083828151811061136c5761136c611d2c565b60200260200101519050806005600087858151811061138d5761138d611d2c565b6020026020010151815260200190815260200160002060008282540392505081905550808301925050806113c090611d58565b905061134f565b506006805491909103905550505050565b6113e0611028565b6106898484848480518251146114165781518151604051635b05999160e01b815260048101929092526024820152604401610646565b3360005b835181101561153e576020818102858101820151908501909101516001600160a01b038816156114e6576000828152602081815260408083206001600160a01b038c168452909152902054818110156114bf576040517f03dee4c50000000000000000000000000000000000000000000000000000000081526001600160a01b038a166004820152602481018290526044810183905260648101849052608401610646565b6000838152602081815260408083206001600160a01b038d16845290915290209082900390555b6001600160a01b0387161561152b576000828152602081815260408083206001600160a01b038b16845290915281208054839290611525908490611f35565b90915550505b50508061153790611d58565b905061141a565b5082516001036115bf5760208301516000906020840151909150856001600160a01b0316876001600160a01b0316846001600160a01b03167fc3d58168c5ae7397731d063d5bbf3d657854427343f4c083240f7aacaa2d0f6285856040516115b0929190918252602082015260400190565b60405180910390a450506105d2565b836001600160a01b0316856001600160a01b0316826001600160a01b03167f4a39dc06d4c0dbc64b70af90fd698a233a518aa5d07e595d983b8c0526c8f7fb868660405161160e929190611f48565b60405180910390a45050505050565b80356001600160a01b038116811461163457600080fd5b919050565b6000806040838503121561164c57600080fd5b6116558361161d565b946020939093013593505050565b6001600160e01b03198116811461071257600080fd5b60006020828403121561168b57600080fd5b813561169681611663565b9392505050565b634e487b7160e01b600052604160045260246000fd5b604051601f8201601f1916810167ffffffffffffffff811182821017156116dc576116dc61169d565b604052919050565b600067ffffffffffffffff8311156116fe576116fe61169d565b611711601f8401601f19166020016116b3565b905082815283838301111561172557600080fd5b828260208301376000602084830101529392505050565b60006020828403121561174e57600080fd5b813567ffffffffffffffff81111561176557600080fd5b8201601f8101841361177657600080fd5b611785848235602084016116e4565b949350505050565b60006020828403121561179f57600080fd5b5035919050565b6000815180845260005b818110156117cc576020818501810151868301820152016117b0565b506000602082860101526020601f19601f83011685010191505092915050565b60208152600061169660208301846117a6565b600067ffffffffffffffff8211156118195761181961169d565b5060051b60200190565b600082601f83011261183457600080fd5b81356020611849611844836117ff565b6116b3565b82815260059290921b8401810191818101908684111561186857600080fd5b8286015b84811015611883578035835291830191830161186c565b509695505050505050565b600082601f83011261189f57600080fd5b611696838335602085016116e4565b600080600080608085870312156118c457600080fd5b6118cd8561161d565b9350602085013567ffffffffffffffff808211156118ea57600080fd5b6118f688838901611823565b9450604087013591508082111561190c57600080fd5b61191888838901611823565b9350606087013591508082111561192e57600080fd5b5061193b8782880161188e565b91505092959194509250565b600080600080600060a0868803121561195f57600080fd5b6119688661161d565b94506119766020870161161d565b9350604086013567ffffffffffffffff8082111561199357600080fd5b61199f89838a01611823565b945060608801359150808211156119b557600080fd5b6119c189838a01611823565b935060808801359150808211156119d757600080fd5b506119e48882890161188e565b9150509295509295909350565b60008060408385031215611a0457600080fd5b82359150611a146020840161161d565b90509250929050565b60008060408385031215611a3057600080fd5b823567ffffffffffffffff80821115611a4857600080fd5b818501915085601f830112611a5c57600080fd5b81356020611a6c611844836117ff565b82815260059290921b84018101918181019089841115611a8b57600080fd5b948201945b83861015611ab057611aa18661161d565b82529482019490820190611a90565b96505086013592505080821115611ac657600080fd5b50611ad385828601611823565b9150509250929050565b600081518084526020808501945080840160005b83811015611b0d57815187529582019590820190600101611af1565b509495945050505050565b6020815260006116966020830184611add565b600080600060608486031215611b4057600080fd5b611b498461161d565b9250602084013567ffffffffffffffff80821115611b6657600080fd5b611b7287838801611823565b93506040860135915080821115611b8857600080fd5b50611b9586828701611823565b9150509250925092565b60008060008060808587031215611bb557600080fd5b611bbe8561161d565b93506020850135925060408501359150606085013567ffffffffffffffff811115611be857600080fd5b61193b8782880161188e565b60008060408385031215611c0757600080fd5b611c108361161d565b915060208301358015158114611c2557600080fd5b809150509250929050565b60008060408385031215611c4357600080fd5b611c4c8361161d565b9150611a146020840161161d565b600080600080600060a08688031215611c7257600080fd5b611c7b8661161d565b9450611c896020870161161d565b93506040860135925060608601359150608086013567ffffffffffffffff811115611cb357600080fd5b6119e48882890161188e565b600080600060608486031215611cd457600080fd5b611cdd8461161d565b95602085013595506040909401359392505050565b600181811c90821680611d0657607f821691505b602082108103611d2657634e487b7160e01b600052602260045260246000fd5b50919050565b634e487b7160e01b600052603260045260246000fd5b634e487b7160e01b600052601160045260246000fd5b600060018201611d6a57611d6a611d42565b5060010190565b601f8211156106db57600081815260208120601f850160051c81016020861015611d985750805b601f850160051c820191505b8181101561065c57828155600101611da4565b815167ffffffffffffffff811115611dd157611dd161169d565b611de581611ddf8454611cf2565b84611d71565b602080601f831160018114611e1a5760008415611e025750858301515b600019600386901b1c1916600185901b17855561065c565b600085815260208120601f198616915b82811015611e4957888601518255948401946001909101908401611e2a565b5085821015611e675787850151600019600388901b60f8161c191681555b5050505050600190811b01905550565b60006001600160a01b03808816835280871660208401525084604083015283606083015260a06080830152611eaf60a08301846117a6565b979650505050505050565b600060208284031215611ecc57600080fd5b815161169681611663565b60006001600160a01b03808816835280871660208401525060a06040830152611f0360a0830186611add565b8281036060840152611f158186611add565b90508281036080840152611f2981856117a6565b98975050505050505050565b808201808211156104c0576104c0611d42565b604081526000611f5b6040830185611add565b8281036020840152611f6d8185611add565b9594505050505056fea2646970667358221220e516420081e377c81e0ab184d145bd977ee644da3adce3b6216e1846c433860c64736f6c63430008140033",
  "linkReferences": {},
  "deployedLinkReferences": {}
}